:04000000FFEF03F01B
:1000080000C016F001C015F0E1CF19F0E2CF1AF0E8
:10001800E9CF17F0EACF18F09EAA28D0570E0001B2
:100028006825996F000E69219A6F86DA99C0E1FFF9
:100038009AC0E2FF00C0E6FF0001684B692B010E81
:10004800685D006E000E6959016E570E0024E96E56
:10005800000E0120EA6EEE50230A07E1686B696B17
:10006800010E616F000E626F30DA9E9AF2A40DD015
:1000780051065150000A04E1010E4F6E020E516EF6
:100088002B0ED66ECF0ED76EF29416C000F015C0A8
:1000980001F017C0E9FF18C0EAFF19C0E1FF1AC054
:0400A800E2FF110062
:1000AC00086A096A100E0C6E0134083609360450C1
:1000BC00085E0550D8A0053C095ED8B007D00450A6
:1000CC0008260550D8B0053C0926D89000360136D4
:0600DC000C2EEAD7120011
:1000E20000019251390806E3300E925D03E3010EDE
:0800F200006E01D0006A12004B
:0E00FA00ACB202D00000FCD792C0ADFF1200E5
:100108000001966B050E965D0AE296519425E16E04
:10011800000E9521E26E200EE66E962BF3D79651CF
:100128009425E16E000E9521E26EE66A96079651D7
:100138009425976F000E9521986F0A0E046E000E95
:10014800056E92C000F093C001F0ACDF08C000F06B
:1001580009C001F0300E002697C0E1FF98C0E2FF09
:1001680000C0E6FF0A0E046E000E056E92C000F095
:1001780093C001F097DF00C092F001C093F0000E29
:10018800011802E1000E001801E102D09607CFD74E
:02019800120053
:10019A000B6A0A6A096A00500402F4CF09F0F3CF25
:1001AA0008F001500502F4CF0BF0F3CF0AF000502B
:1001BA000502F3500926F4500A22E86A0B2201507C
:1001CA000402F3500926F4500A22E86A0B2208C0F6
:1001DA0000F009C001F00AC002F00BC003F01200DF
:0C01EA000E0E0D6E0D2EFED70000120050
:1001F600C26A501C006E0050C116070EC012C08E97
:1002060088C000F000360090003600900050C21200
:10021600C280E8DFC282C2A201D0FDD7C4CF01F0FE
:0E022600006AC3500012000E0112C2901200B6
:1002340000018E6B8F6B88C090F089C091F0800EA6
:100244008919006E800E005C02E1000E885D0BE2ED
:10025400010E8E6F000E8F6F88510008906F89C059
:1002640091F0000E915790C092F091C093F08AC023
:1002740094F08BC095F046DF060E8C6F000E8D6FE8
:10028400000E006E8D51005C02E18C51000819E2F1
:100294008C518A25E16E8D518B21E26E010E8C5DAD
:1002A400006E000E8D59016E00508A25E96E0150D2
:1002B4008B21EA6EEECFE6FF010E8C5F000E8D5BA4
:1002C400DFD78AC0E1FF8BC0E2FF200EE66E8E51BD
:1002D4008F111AE08C6B8D6B8C518A25E96E8D51D0
:1002E4008B21EA6EEE50200A03E18C4B8D2BF4D760
:1002F400010E8C5F000E8D5B8C518A25E16E8D5151
:0A0304008B21E26E2D0EE66E120052
:10030E0000018B6B88C0E9FF89C0EAFFEECF8AF04F
:10031E008A51000A0EE08AC092F0E8DE00018B2BB3
:10032E008B518825E96E000E8921EA6EEECF8AF098
:04033E00EFD71200E3
:1003420088C0E9FF89C0EAFFEECF8AF0000E000103
:100352008B6F000E8B6F000E8B1902E1200E8A1933
:1003620007E0000E8B1902E1090E8A1901E003D0A1
:10037200884B892BE5D78C6B8D6B8E6B8F6B000E48
:100382008B1902E12D0E8A1905E18E4B8F2B884BBA
:10039200892B08D0000E8B1902E12B0E8A1902E17B
:1003A200884B892B88C0E9FF89C0EAFFEECF8AF02B
:1003B200000E8B6F000E8B6F8AC092F091DE00529E
:1003C20018E08CC000F08DC001F00A0E046E000E21
:1003D200056EE2DE300E8A5D026E000E8B59036EF0
:1003E200025000248C6F035001208D6F884B892BA3
:1003F200D9D78E518F1108E08C510008006E8DC044
:1004020001F0000E015604D08CC000F08DC001F046
:020412001200D6
:10041400CB50010F006E016A000E012288C004F067
:10042400000E056EB8DE060E026E00C004F001C0B8
:1004340005F0025005E005320432059EFF0FFAD79D
:10044400040E016E04C000F0015004E00036009078
:10045400FF0FFBD7300E0014036E04C000F005C07C
:1004640001F001320032019E01320032019E00C0CF
:0C047400BEFF0F0EBD160350BD1212009B
:100480000E0EC16E070EB46E770ED36E936A8A6A33
:04049000816A12006B
:10049400F184030ED56EF28AF2942B0ED66ECF0E33
:0804A400D76E050E516E120027
:1004AC00FF0E00016B6FFF0E6C6FFF0E6D6FFF0E7A
:1004BC006E6FC26A501C006E0050C116070EC0123F
:0604CC00C08EC280120088
:1004D2005750450A33E15850730A30E15950630AC4
:1004E2002DE15A50300A02E18A7022D05A50310A64
:1004F20002E18A721DD05A50320A02E18A7418D07F
:100502005A50330A02E18A7613D05A50340A02E171
:100512008A780ED05A50350A02E18A7A09D05A50A6
:10052200360A02E18A7C04D05A50370AD8B48A7E4D
:0E053200620E576E790E586E740E596E1200DE
:10054000AECF01F0ABA202D0AB98AB8801C000F0F7
:02055000120097
:100552000900F5CFE6FF0006FBE10106F9E1120012
:08056200BE6ABD98BD9A1200AB
:10056A00340E0001886F000E896FCCDE000E81B058
:10057A00010E886F896B6A0E8A6F000E8B6F55DECB
:10058A006A0E886F000E896FBDDE450E886F000EF9
:10059A00896FB8DE000E8AB2010E886F896B6A0E07
:1005AA008A6F000E8B6F41DE6A0E886F000E896FAC
:1005BA00A9DE400E886F000E896FA4DE000E81B49A
:1005CA00010E886F896B6A0E8A6F000E8B6F2DDEA3
:1005DA006A0E886F000E896F95DE2F0E886F000EE7
:1005EA00896F90DE000E81B6010E886F896B6A0EE4
:1005FA008A6F000E8B6F19DE6A0E886F000E896F84
:10060A0081DE200E886F000E896F7CDE000E81B8B5
:10061A00010E886F896B6A0E8A6F000E8B6F05DE7A
:10062A006A0E886F000E896F6DDE1B0E886F000ED2
:10063A00896F68DE000E81BA010E886F896B6A0EB7
:10064A008A6F000E8B6FF1DD6A0E886F000E896F5C
:10065A0059DE2A0E886F000E896F54DE000E81BCA7
:10066A00010E886F896B6A0E8A6F000E8B6FDDDD53
:10067A006A0E886F000E896F45DE250E886F000EA0
:10068A00896F40DE000E81BE010E886F896B6A0E8B
:10069A008A6F000E8B6FC9DD6A0E886F000E896F34
:1006AA0031DE4A0E886F000E896F2CDE616B626B39
:0206BA0012002C
:1006BC000001886B9ADD00C088F001C089F06F0ED4
:1006CC0000018A6F000E8B6FAFDD630E886F000E1A
:1006DC00896F17DE6F0E886F000E896F12DE520E57
:0C06EC00886F000E896F0DDE4F6A12004F
:1006F8005AC083F0830E0001886F000E896F1DDEDB
:1007080000C084F001C085F05BC083F0830E886F61
:10071800000E896F12DE00C086F001C087F084C029
:1007280000F085C001F00A0E046E000E056E31DD82
:1007380086510024846F87510120856F5CC083F047
:10074800830E886F000E896FF8DD00C086F001C047
:1007580087F084C000F085C001F00A0E046E000E18
:10076800056E17DD865100268751012200C084F0EE
:1007780001C085F000C088F049DE0001616B626B42
:0207880012005D
:10078A00FA0E0001776F000E786F920E796F000EE5
:10079A007A6F400E736F050E746F000E756F000E40
:1007AA00766FFF0E7F6FFF0E806F000E816F000E57
:1007BA00826FFF0E7B6FFF0E7C6F000E7D6F000E47
:1007CA007E6FAC8A900EAB6E948E949C9EAA03D0D8
:0807DA00AECF00F0FBD71200C6
:0A07E2009494CA840C0EBD1212009C
:1007EC00D5AE02D0D59E01D0D58E0001616B626B67
:0207FC001200E9
:1007FE007FEC04F03EDE47DE52DECA80CA92630E04
:10080E00CB6EA8DEE7DF886BFEDDB886B06ACF0E52
:10081E00AF6EAC84B3DF820E0C6EDD0E0D6E0D2E40
:10082E00FED70C2EFCD700000000F28EF28C9D8AB3
:10083E005750520A0EE15850610A0BE15950300AD6
:10084E0008E1000E621902E1010E611902E1C7DF33
:10085E0021D05750620A0EE15850790A0BE15950D7
:10086E00740A08E1000E621902E1010E611902E13B
:10087E0075DE10D05750500A0DE15850570A0AE154
:10088E0059504D0A07E1000E621902E1010E61197D
:10089E0001E12BDF4F50010A01E109DFC9D7FFD774
:1008FE0010EE1BF04F0E006E010E016EAE0EF66E78
:0E090E00080EF76E000EF86EA9EC02F0120053
:0508AE002B62353D0046
:0508B3002B62343D0042
:0508B8002B62373D003A
:0508BD002B62363D0036
:0508C2002B62333D0034
:0C08C70062797465456E742B62303D0050
:0508D3002B62323D0024
:0508D8002B62313D0020
:0508DD002B46696E00CE
:0108E2000015
:0108E30030E4
:0108E4000211
:0508E5002B46696E00C6
:0A08EA0062797400000000000000B5
:0208F400010001
:0508F6005261302B00EF
:0208FB000000FB
:00000001FF
